:020000040800F2
:10000000E0BB0020DD010008991400086D11000814
:1000100095140008290900086F2600080000000058
:100020000000000000000000000000004501000882
:10003000BD0D00080000000089010008251A000815
:10004000F7010008F7010008F7010008F7010008B0
:10005000F7010008F7010008C10D0008F7010008CA
:10006000F7010008F10D00081D0E0008F701000857
:1000700045090008F701000865090008F7010008B4
:10008000F7010008F7010008F7010008F701000870
:10009000F7010008F7010008F7010008F701000860
:1000A000F7010008F7010008F7010008F701000850
:1000B000F7010008F7010008F11A0008F70100082D
:1000C000F7010008F7010008F7010008F701000830
:1000D000F701000895220008492300089923000829
:1000E000F7010008F7010008F7010008F701000810
:1000F000F7010008F7010008F7010008F701000800
:10010000F7010008F7010008F7010008F7010008EF
:10011000F7010008F7010008F7010008F7010008DF
:10012000F7010008F7010008F7010008F7010008CF
:10013000DFF80CD000F094FB004800477D36000843
:10014000E0BB0020224B19680868B0E8F00F80F38C
:100150000988BFF36F8F4FF0000080F311884EF0D5
:100160000D0E70470000000006480068006880F32C
:10017000088862B661B6BFF34F8FBFF36F8F00DFA1
:1001800000BF00BF08ED00E0EFF30980BFF36F8F01
:100190000F4B1A6820E9F00F106008B54FF05000BF
:1001A00080F31188BFF34F8FBFF36F8F04F0E8F92E
:1001B0004FF0000080F31188BDE808401968086816
:1001C000B0E8F00F80F30988BFF36F8F704700BF6E
:1001D00098000020EFF30580704700000648804734
:1001E00006480047FEE7FEE7FEE7FEE7FEE7FEE71C
:1001F000FEE7FEE7FEE7FEE7911A0008310100087E
:1002000040EA01039B0703D009E008C9121F08C098
:10021000042AFAD203E011F8013B00F8013B521E18
:10022000F9D27047D2B201E000F8012B491EFBD28F
:1002300070470022F6E710B513460A4604461946F1
:10024000FFF7F0FF204610BD30B505462A460B46A5
:1002500012F8010B13F8014B08B1A042F8D01CB101
:10026000002802D06D1CF1E7284630BD2DE9FE4F75
:1002700081EA030404F0004421F0004100944FF0AF
:10028000000B23F0004350EA01045ED052EA03045D
:100290005BD0C3F30A54C1F30A552C44A4F2F334DF
:1002A0000194A0FB0254C1F3130141F48011C3F384
:1002B000130343F4801301FB024400FB034E840A42
:1002C000970A44EA815447EA8357A4FB07680295DA
:1002D0008D0A05FB07854FEA932C04FB0C54270578
:1002E000029D4FEA065847EA1637B5EB08056EEB54
:1002F000070C870E920E47EA811742EA8312A7FB8A
:100300000201B6EB0B0164EB00042B0D43EA0C3346
:100310005E1844EB1C50DA465146E7FB0201C5F378
:1003200013044FEA0B3343EA14534FEA0432019C9F
:1003300043EA0603A4F10C040294009CCDE900B446
:1003400000F068F903B0BDE8F08F00200146F9E73E
:100350002DE9F04D81EA030404F0004B21F0004543
:1003600014464FF0000A23F0004150EA050220D065
:1003700054EA01021DD0C5F30A570246C5F3130320
:10038000C1F31300C1F30A5640F4801543F48013FF
:10039000A7EB0608101BD64608F2FD3873EB0500E4
:1003A00002D308F1010801E092185B41B8F1000F97
:1003B00003DA00200146BDE8F08D00204FF48011E3
:1003C000064684460EE0171B73EB050705D3121B88
:1003D00063EB050306434CEA010C49084FEA300081
:1003E00092185B4150EA0107EDD152EA030012D0A6
:1003F00082EA040083EA0501084305D0101BAB41E3
:1004000006D20122002306E000224FF0004302E062
:100410006FF0010253101AEB06004CEB085110EB81
:100420000A0041EB0B01BDE8F04D00F0E4B80EB559
:10043000C10F80EAE0700844CA07002140F233434C
:100440008DE80E000A460B4600F0E4F803B000BD4C
:100450000EB540F2334102910021CDE900110A4668
:100460000B4600F0D7F803B000BD00F0004220F0CA
:100470000040C10DC0F3160040F400007F2901DAEE
:1004800000207047962903DCC1F19601C84001E0C5
:1004900096398840002AF4D04042704700F000426C
:1004A00030F000400AD0C10D01F56071C0F31600B4
:1004B00042EA0151C208400711437047002001463B
:1004C000704701F0004330B421F0004150EA0102CE
:1004D00006D00A0DA2F56072C1F31301002A02DCF6
:1004E00030BC00207047440F44EAC104C100E0184A
:1004F00030BC00EBC25000F047B830B50B460146A7
:1005000000202022012409E021FA02F59D4205D3B2
:1005100003FA02F5491B04FA02F52844151EA2F15C
:100520000102F1DC30BD2DE9F05F05460020924666
:100530009B4688460646814640241BE028464146A5
:100540004746224600F0ADF953465A46C01A91413B
:1005500010D311461846224600F094F92D1A67EB85
:1005600001084F4622460120002100F08BF917EBCD
:1005700000094E41201EA4F10104DFDC484631464B
:100580002A464346BDE8F09F0029A8BF7047401C9B
:10059000490008BF20F00100704710B4B0FA80FC99
:1005A00000FA0CF050EA010404BF10BC704749B1D6
:1005B000CCF1200421FA04F411FA0CF118BF012146
:1005C00021430843A3EB0C01CB1D4FEA00614FEA26
:1005D000102042BF002010BC704700EBC3501044F5
:1005E0000029A4BF10BC7047401C490008BF20F080
:1005F000010010BC704710B5141E73F1000408DA36
:10060000401C41F1000192185B411A4301D120F0D6
:10061000010010BD2DE9F04D92469B4611B1B1FA93
:1006200081F202E0B0FA80F22032904600F02AF91E
:1006300004460F4640EA0A0041EA0B0153465A4677
:10064000084313D0114653EA010019D0C8F1400203
:10065000504600F026F905460E4650465946424699
:1006600000F010F9084305D0012004E02046394687
:10067000BDE8F08D0020054346EAE0762C43374381
:100680000A986305E40AA0EB08000022FD0A44EA88
:1006900047540A3002D500200146E9E70105101948
:1006A0006941DDE9084500196941BDE8F04DA2E75F
:1006B0002DE9FE4F804681EA0300C00F0C460090F2
:1006C00021F0004123F00045B8EB0200A94105D21A
:1006D0004046214690461C460B46024623F0004009
:1006E000104347D0270DC7F30A00C3F30A51029005
:1006F000401A019040286BDAC3F3130040F4801BCA
:100700000098924620B10023D2EB030A63EB0B0B57
:1007100001985946C0F14002504600F0B3F8064631
:100720000D4650465946019A00F0CBF810EB0800F0
:100730006141002487EA115284EAE7731A4340D0EA
:10074000009A62B3019A012A4FEA075215DC001B96
:1007500061EB02014FF0004202EA0752CDE900428C
:10076000001C41F5801132462B46FFF753FF03B0C2
:10077000BDE8F08F40462146F9E7001B61EB02011E
:10078000001C41F5801300185B412018A2F50017EA
:1007900047EB030140EAD570B6196D4111E06D08D1
:1007A0004FEA360645EAC0754FEA0752001B61EB77
:1007B0000201001C41F5801149084FEA3000001980
:1007C000514132462B4603B0BDE8F04FFFF713BF4F
:1007D0000098012240000023D0EB020263EBE0739B
:1007E000009821464FEAE074B8EB000061EB040189
:1007F000E9E783F000435BE781F0004158E7C1F38C
:100800000A52C1F3130140F2FF3341F480119A42BE
:1008100002DA00200146704740F233439A42A2F2C6
:10082000334202DC524200F03CB800F02BB800002A
:1008300030B5041E71F1000404DB4FF00044404267
:1008400064EB0101141E73F1000405DB1C464FF03C
:100850000043524263EB0403994208BF904230BD0B
:10086000064C074D06E0E06840F0010394E80700FD
:1008700098471034AC42F6D3FFF75EFCFC500008FA
:100880001C510008202A04DB203A00FA02F1002063
:1008900070479140C2F1200320FA03F319439040BE
:1008A0007047202A04DB203A21FA02F00021704729
:1008B00021FA02F3D040C2F12002914008431946C8
:1008C0007047202A06DBCB17203A41FA02F043EAB0
:1008D000E07306E041FA02F3D040C2F120029140F9
:1008E00008431946704710B500F042FC10BD0000E7
:1008F00008B50121082000F083FF4FF48070ADF8A7
:10090000000010208DF8030003208DF802006946D6
:10091000044800F031FB4FF48071024800F000FC05
:1009200008BD0000000C014000BFFEE710B5044CFC
:1009300002E020688047241D20680028F9D110BDFE
:100940002C00002010B5202000F064F830B12020E9
:1009500000F02CF80021024800F036F810BD00002D
:100960001C00024010B54FF4005000F053F850B195
:100970004FF4005000F01AF80021034800F024F86A
:1009800001200249087010BD440002408000002090
:1009900000F0805111B10349086001E0024948604C
:1009A00070470000040402400000024000F0805143
:1009B00011B10349086001E0024948607047000036
:1009C000040402400000024021B1026842F001022A
:1009D000026004E002684FF6FE731A40026070473E
:1009E0000146486880B2704701460020002201F0AD
:1009F000805313B1054B1A6801E0054B1A6802EAEF
:100A000001030BB1012000E0002070470004024008
:100A10000000024001460020002201F0805313B183
:100A2000054B1A6801E0054B1A6802EA01030BB195
:100A3000012000E000207047000402400000024056
:100A400000B58BB00121084600F0AAFE4FF40070FB
:100A50000390002002900A90224801900020079005
:100A600080200590002008901F48009000200690EC
:100A700004904FF40050099069461C4800F045F876
:100A80004FF4007003901020029000200A90184844
:100A900001900020079080200590002008901248C7
:100AA00000900020069004904FF400500990694691
:100AB0000E48143000F029F801210C48FFF784FF9C
:100AC000012240210848001F01F0A9FC01228021D9
:100AD0000548001F01F0A3FC0020064908600BB088
:100AE00000BD0000FC220020044400406C000240D5
:100AF000FC2000209C8122421AB103680B43036052
:100B000002E003688B430360704710B5002202685F
:100B100047F6F0739A430C6A8B6823430C692343AE
:100B20004C6923438C692343CC6923434C6A234398
:100B30008C6A23431A430260CB6843600B6883606E
:100B40004B68C36010BD4160704700002DE9F05F45
:100B50000024A146A246A34600F0BAF8CC2000F03B
:100B6000FFF8442000F0FCF800F0B2F8CC2000F0D0
:100B7000F7F8BE2000F0F4F800F086F8814600F0A7
:100B800083F8824649EA0A2404F47840B0F5784FA5
:100B90000FD1E043401C84B22046FFF759FC0746C2
:100BA00000220B4BFFF762FB0546FFF78AFC8346EA
:100BB0000BE02046FFF74CFC07460022054BFFF7F1
:100BC00055FB0546FFF77DFC83465846BDE8F09F80
:100BD0000000B0BF0000B03F08B54FF40060ADF8B2
:100BE000000048208DF803006946024800F0C4F96F
:100BF00008BD00000020014008B54FF40060ADF8CA
:100C0000000010208DF8030003208DF802006946D3
:100C1000014800F0B1F908BD0020014008B50121EC
:100C2000080200F0EDFD4FF40060ADF80000102068
:100C30008DF8030003208DF802006946014800F09A
:100C40009BF908BD0020014010B500F041F83320A9
:100C500000F086F8002409E000F016F8064908556F
:100C60000846015D05A002F00FF8641C082CF3DBB8
:100C700004A002F009F810BD71000020252378209F
:100C8000000000000A00000070B50025002417E0F5
:100C9000FFF7B2FF00200C490860022002F0B8FC08
:100CA000FFF79AFF082002F0B3FC084890F82C01E7
:100CB000A0402843C5B2322002F0AAFC601CC4B296
:100CC000082CE5DB284670BDAC012442000024421C
:100CD00010B5FFF791FF0020154908604FF4FA7036
:100CE00002F096FC01201349C1F8AC011E2002F06D
:100CF0008FFC0024FFF770FF04E0601CC4B20120E9
:100D000002F086FC0A488038006808B1F02CF4DB59
:100D1000F02C03DB08A001F0B7FF03E00AA001F00C
:100D2000B3FF00244FF4FA7002F072FC10BD000013
:100D3000AC01244200002442526573657420666150
:100D4000696C65642E0A00005265736574205375E2
:100D5000636365737366756C6C79210A000000002B
:100D600070B50446FFF748FF002520E004F00100BD
:100D700068B100200F490860022002F049FC012000
:100D80000D49C1F8AC013C2002F042FC0CE000200F
:100D9000084908603C2002F03BFC01200649C1F8EC
:100DA000AC01022002F034FC6410681CC5B2082DAE
:100DB000DCDB70BDAC01244200002442704700001F
:100DC00010B5012000F05AF8012808D10A2002F0DD
:100DD000FFFB05480068012801D104490860012093
:100DE00000F046F810BD00000001214294012342AA
:100DF00010B5082000F042F8012809D10A2002F0BD
:100E0000E7FB0548006818B90020034988310860ED
:100E1000082000F02DF810BD0C01234210B5102061
:100E200000F02CF8012818D10A2002F0D1FB0D485F
:100E3000006890B90B488430006808B9012000E0D0
:100E400000200849843108600748D0F8A00108B99B
:100E5000012000E0002005490860102000F008F89B
:100E600010BD00001001234200802142A0812142D8
:100E70000149086070470000140401400146002049
:100E80000022074B1B6803EA0102054B14331B6861
:100E90000B4013B10AB1012000E0002070470000B0
:100EA00000040140002123498279002A3AD00A46F1
:100EB000126803689A430B461A600A1D1268036899
:100EC0009A430B1D1A60027911440A6803681A4399
:100ED0000A60184A0832126803689A43154B0833AF
:100EE0001A601A1D126803689A43124B0C331A6079
:100EF0004279102A0ED11A1F126803681A430D4B4B
:100F000008331A601A1D126803681A43094B0C3320
:100F10001A600DE00749427911440A6803681A43D0
:100F20000A6005E0027911440A6803689A430A607E
:100F3000704700000004014030B500228B071C0FF1
:100F40000F2303FA04F20B4B8C1053F82430934315
:100F5000084C8D1044F8253023468C1053F824306B
:100F60008C07240F00FA04F42343024C8D1044F83C
:100F7000253030BD080001402DE9F0410246002532
:100F80000026002000230024002791F803C00CF065
:100F90000F0591F803C00CF0100CBCF1000F03D04A
:100FA00091F802C04CEA050591F800C0BCF1000FB1
:100FB00031D0146800202BE04FF0010C0CFA00F344
:100FC000B1F800C00CEA03069E4220D183004FF026
:100FD0000F0C0CFA03F7BC4305FA03FC4CEA0404BB
:100FE00091F803C0BCF1280F06D14FF0010C0CFAA8
:100FF00000FCC2F814C00AE091F803C0BCF1480F2D
:1010000005D14FF0010C0CFA00FCC2F810C0401CD6
:101010000828D1D31460B1F800C0BCF1FF0F34DD53
:10102000546800202EE000F1080C4FF0010808FA87
:101030000CF3B1F800C00CEA03069E4221D18300F4
:101040004FF00F0C0CFA03F7BC4305FA03FC4CEA13
:10105000040491F803C0BCF1280F05D100F1080C7D
:1010600008FA0CF8C2F8148091F803C0BCF1480FDC
:1010700007D100F1080C4FF0010808FA0CF8C2F88B
:101080001080401C0828CED35460BDE8F0810000D9
:10109000F0B50A46002300240021002500F0004698
:1010A000B6F1004F02D11D4EF16901E01B4E71688F
:1010B000C0F3034583B200F44016B6F5401F08D1D3
:1010C00021F07061154E766826F07066134F7E60D1
:1010D00012E000F48016B6F5801F06D1032606FA4A
:1010E00005F4A14341F0706106E0460D360103FAB4
:1010F00006F6B14341F0706122B1460D360103FAA4
:1011000006F6314300F00046B6F1004F02D1034E1F
:10111000F16101E0014E7160F0BD0000000001408E
:10112000416170470161704730B502464FF6FF706C
:1011300012B10446A14200D130BD11E012F8014BBA
:10114000604000230AE000F0010424B140104AF29C
:101150000104604000E040105C1CE3B2082BF2DBAD
:101160000C1EA1F10101E9D100BFE5E700BFFEE7D8
:1011700008B50121082000F043FB4020ADF8000035
:1011800003208DF8020010208DF8030069460B48FB
:10119000FFF7F2FE8020ADF8000003208DF802007A
:1011A00010208DF8030069460448FFF7E5FE012092
:1011B000034908600349C1F89C0108BD000C0140C7
:1011C000988121420080214208B50121442000F08D
:1011D00017FB1820ADF8000048208DF80300694681
:1011E0000648FFF7C9FE0120ADF8000028208DF861
:1011F000030069460248FFF7BFFE08BD0018014022
:101200000008014008B50121482000F0F9FA20202B
:10121000ADF8000010208DF8030003208DF80200C7
:1012200069460C48FFF7A8FE2020ADF8000010200A
:101230008DF8030003208DF8020069460648FFF789
:101240009BFE20210348FFF76DFF20210248FFF796
:1012500069FF08BD000C01400018014000B589B0CD
:101260000121082000F0CCFA0121084600F0A8FA7C
:101270000121084600F0C4FA0121022000F0A0FA82
:101280000820ADF8040003208DF8060018208DF822
:10129000070001A94F48FFF76FFE01214E48FFF7F5
:1012A000F7FE18208DF803000220ADF8000003209F
:1012B0008DF8020069464748FFF75EFE1020ADF842
:1012C00004008DF8070003208DF8060001A94148AD
:1012D000FFF752FE8020ADF8040010208DF80700C3
:1012E00003208DF8060001A93A48FFF745FE0120CA
:1012F000ADF8040010208DF8070003208DF80600DB
:1013000001A93448FFF738FE0420ADF8040010208E
:101310008DF8070003208DF8060001A92D48FFF77E
:101320002BFE0020ADF81E00ADF81A006320ADF8CA
:101330001C002320ADF8180006A94FF0804000F0F3
:10134000FDFC06A9254800F0F9FC6020ADF8080076
:101350000120ADF80A000020ADF8100002A94FF0FE
:10136000804000F03BFC02A91C4800F097FC0821DB
:101370001A4800F0D1FC0821C80600F081FC0121C8
:10138000880700F0F5FB0121144800F0F1FB012172
:10139000880700F0FCFB0121104800F0F8FB002159
:1013A0004FF0804000F0C5FC00210C4800F0C3FC69
:1013B00010210848FFF7B6FE80210648FFF7B0FE6F
:1013C00004210448FFF7AEFE01210248FFF7A8FE02
:1013D00009B000BD000C01400001180000040040ED
:1013E0000EB50121084600F00BFA04210846FFF76C
:1013F000A3FD03210420FFF79FFD00210846FFF70E
:101400009BFD1820019000208DF808000C208DF81D
:10141000090001208DF80A0001A8FFF743FD012013
:10142000019000208DF8080008208DF809000120A7
:101430008DF80A0001A8FFF735FD0A208DF800009D
:1014400002208DF8010000208DF8020001208DF8A7
:101450000300684600F022F809208DF80000022001
:101460008DF8010001208DF802008DF80300684618
:1014700000F014F806208DF8000002208DF801001D
:1014800003208DF8020001208DF80300684600F06B
:1014900005F80EBD00BFFEE77047000070B50021E3
:1014A00000230F22C47804B3154C246804F4E064CC
:1014B000C4F5E064210AC1F10403CA40447804FA87
:1014C00003F184781440214309010E4C0678A1559C
:1014D000047804F01F050124AC4005786D11AD00BF
:1014E00005F1E025C5F8004109E0047804F01F0586
:1014F0000124AC40044D0678761145F8264070BDB5
:101500000CED00E000E400E080E100E0024901436E
:10151000024A1160704700000000FA050CED00E07F
:1015200070B50646002419E004F1B001C8B20021EC
:1015300000F00AF90021084600F006F90021102009
:1015400000F002F9002505E00121304600F0FCF82A
:10155000681CC5B2802DF7DB601CC4B2082CE3DB2D
:1015600070BD00002DE9F04306460D461746A7F171
:10157000200800241AE00F4800EB081010F814901F
:101580002819C1B24A46304600F016F8094800EB67
:1015900008116000401C11F800902A19D1B2721C89
:1015A000D0B24A4600F008F8601CC4B2082CE2DB56
:1015B000BDE8F0832A4A000870B505460C46164679
:1015C00005F1B001C8B2002100F0BEF804F00F0030
:1015D000002100F0B9F8102101EB1410002100F0F7
:1015E000B3F80121304600F0AFF870BD70B5064683
:1015F0000D46144608E0227829463046FFF7B2FF30
:1016000005F10800C5B2641C20780028F3D170BD34
:1016100008B50121202000F0F3F8F820ADF8000013
:1016200010208DF8030003208DF80200694643481E
:10163000FFF7A2FCF8214148FFF774FD0120404963
:101640000860642001F0C4FF00203E49C1F8900109
:10165000642001F0BDFF0120394908600021AE205F
:1016600000F072F80021084600F06EF8002110200A
:1016700000F06AF80021402000F066F80021A12067
:1016800000F062F80021C82000F05EF80021A620DA
:1016900000F05AF80021812000F056F80021FF20C8
:1016A00000F052F80021A82000F04EF800213F2061
:1016B00000F04AF80021D32000F046F80021084647
:1016C00000F042F80021D52000F03EF800218020F3
:1016D00000F03AF80021D92000F036F80021F1207E
:1016E00000F032F80021DA2000F02EF8002112205C
:1016F00000F02AF80021DB2000F026F8002140202D
:1017000000F022F80021202000F01EF80021102017
:1017100000F01AF800218D2000F016F800211420A6
:1017200000F012F80021A42000F00EF80021AF20F4
:1017300000F00AF80020FFF7F3FE08BD0014014096
:10174000908122420080224210B5134B1960002381
:10175000124CC4F88C31002216E000230E4C241DDC
:10176000236000F080031BB10123241D236003E0EC
:101770000023094C083423600123074C241D2360F7
:101780004306180E531CDAB2082AE6DB0123024C8A
:10179000083C236010BD0000948122420080224258
:1017A00029B1064A52690243044B5A6104E0034AD4
:1017B00052698243014B5A61704700000010024099
:1017C00029B1064AD2690243044BDA6104E0034AB4
:1017D000D2698243014BDA61704700000010024079
:1017E00029B1064A12690243044B1A6104E0034A14
:1017F00012698243014B1A617047000000100240D9
:1018000029B1064A92690243044B9A6104E0034AF3
:1018100092698243014B9A617047000000100240B8
:1018200029B1064AD2680243044BDA6004E0034A55
:10183000D2688243014BDA6070470000001002401A
:1018400030B500210022002400232D4D6D6805F0E5
:101850000C0121B1042905D0082923D105E0294D27
:10186000056022E0274D05601FE0254D6D6805F4F9
:101870007012234D6D6805F48034022505EB924209
:101880001CB9214D554305600BE01D4D6D6805F4F5
:1018900000351DB11C4D5543056002E0194D5543FF
:1018A000056002E0174D056000BF00BF144D6D6874
:1018B00005F0F0010909154D6B5C0568DD404560D8
:1018C0000F4D6D6805F4E061090A104D6B5C4568C9
:1018D000DD4085600A4D6D6805F46051C90A0B4D05
:1018E0006B5C4568DD40C560054D6D6805F44041A1
:1018F000890B074D6B5CC568B5FBF3F5056130BD21
:101900000010024000127A0000093D000000002093
:101910001000002010B500F001F810BD0CB500203B
:10192000019000903348006840F4803031490860ED
:1019300000BF3048006800F4003000900198401C5F
:101940000190009818B90198B0F5A06FF1D129481D
:10195000006800F4003010B10120009001E0002088
:1019600000900098012843D12348006840F01000FF
:10197000214908600846006820F003000860084616
:10198000006840F0020008601A4840681949486041
:101990000846406848600846406840F480604860F7
:1019A0000846406820F47C1048600846406840F4CF
:1019B000E81048600846006840F08070086000BF8A
:1019C0000C48006800F000700028F9D00948406811
:1019D00020F00300074948600846406840F00200D4
:1019E000486000BF0348406800F00C000828F9D1A7
:1019F0000CBD00000010024000200240042808D165
:101A00004FF0E021096941F004014FF0E02211613B
:101A100007E04FF0E021096921F004014FF0E022D6
:101A20001161704710B502F09BFE012801D002F051
:101A30004DFE10BD10B50420FFF7E0FF1048006810
:101A40001049B0FBF1F0104908700D4800680D49CD
:101A5000B0FBF1F44FF47A70444301200B49088045
:101A60004FF0E020006940F002004FF0E0210861F3
:101A700008464461006940F00100086110BD0000A3
:101A80001400002040420F00280000202A000020FF
:101A900010B51348006840F001001149086008467D
:101AA0004068104908400E494860084600680E49E1
:101AB00008400B4908600846006820F48020086050
:101AC0000846406820F4FE0048604FF41F0088601C
:101AD000FFF720FF4FF000600449086010BD0000D0
:101AE000001002400000FFF8FFFFF6FE08ED00E0E6
:101AF00010B50121044800F056F818B10121024840
:101B000000F042F810BD0000000800401FB50121A0
:101B10000420FFF755FE41F28730ADF8080043F688
:101B20003F00ADF804000020ADF80A00ADF8060053
:101B300001A90E4800F002F901210C4800F024F838
:101B400001221146094800F03FF81E208DF80000E0
:101B500002208DF8010003208DF8020001208DF88D
:101B600003006846FFF79AFC1FBD00000008004014
:101B700021B1028842F08002028004E002884FF620
:101B80007F731A4002807047CA430282704721B1B6
:101B9000028842F00102028004E002884FF6FE73E0
:101BA0001A400280704730B502460020002300240E
:101BB000158A05EA0103958905EA010413B10CB100
:101BC000012000E0002030BD1AB183890B438381DE
:101BD00002E083898B4383817047000070B5002445
:101BE00000220023058C4FF6EF7635400584028CE9
:101BF0008388048B48F6FF752C404FF6FF452C4038
:101C00000D884FF6FF7606EA05252C434FF6DF7563
:101C10002A400D8906EA05152A434D8806EA05156E
:101C20002A43154DA84202D0144DA8421DD14FF6AB
:101C30007F752A404D894FF6FF7606EA05152A433F
:101C40004FF6BF752A408D8806EA05152A434FF6E0
:101C5000FF352B404FF2FF752B408D8906EA850535
:101C60002B43CD8906EA85052B4383800483CD88E9
:101C70000587028470BD0000002C01400034014043
:101C80000A460021018B4FF2FF7319404FF6FF7394
:101C900003EA0223194301837047000070B5002254
:101CA00000230024058C4EF6FF7635400584038C16
:101CB0008488828B48F6FF752A404FF6FF452A40FC
:101CC0000D884FF6FF7606EA05252A434DF6FF7587
:101CD0002B400D8906EA05352B434D8806EA05356C
:101CE0002B430B4DA84202D00A4DA84208D14BF617
:101CF000FF752C408D894FF6FF7606EA85152C433B
:101D000084808283CD88A0F84050038470BD000099
:101D1000002C0140003401400A460021818B4FF223
:101D2000FF7319404FF6FF7303EA022319438183BF
:101D3000704701877047A0F8401070470022028862
:101D40001D4B98420ED01D4B98420BD0B0F1804FE6
:101D500008D01B4B984205D01A4B984202D01A4B20
:101D6000984204D14FF68F731A404B881A43174B91
:101D7000984207D0164B984204D04FF6FF431A40C2
:101D8000CB881A4302808B8883850B8803850A4B96
:101D900098420BD0094B984208D00E4B984205D080
:101DA0000D4B984202D00D4B984201D10B7A03861D
:101DB0000123838270470000002C01400034014061
:101DC0000004004000080040000C004000100040EB
:101DD0000014004000400140004401400048014020
:101DE00000B58DB001210846FFF7DAFC26480290C5
:101DF00026480390102004900002059000200690D1
:101E0000802007900020089009900A904FF480509D
:101E10000B9000200C9002A91D48FEF776FE0122CF
:101E200002211B48FEF768FE0E208DF804000020FA
:101E30008DF805008DF8060001208DF8070001A837
:101E4000FFF72CFB104802901248039000200490EA
:101E50004FF48060059000200690802007900020BD
:101E6000089009900A904FF400500B9000200C90BD
:101E700002A907481430FEF748FE01210448143037
:101E8000FEF7A2FD0DB000BD04380140FC040020A7
:101E900044000240FC14002000B587B00121480432
:101EA000FFF78EFC01212420FFF7AAFC0420ADF8E7
:101EB000180003208DF81A0018208DF81B0006A9C1
:101EC0002948FFF759F80820ADF8180004208DF8CC
:101ED0001B0006A92448FFF74FF88020ADF8180032
:101EE00010208DF81B0003208DF81A0006A91F484A
:101EF000FFF742F84FF4165002900020ADF80C00A6
:101F0000ADF80E00ADF81000ADF814000C20ADF8DF
:101F1000120002A9164800F035FB0121144800F018
:101F200072FA012240F22441114800F006FB2620FB
:101F30008DF8040003208DF805008DF806000120BF
:101F40008DF8070001A8FFF7A9FA012240210848EF
:101F500000F065FA01228021054800F060FAFEF7E2
:101F60006FFD07B000BD00000008014000140140F3
:101F70000044004070B506460D46154915A000F016
:101F800083FE01201649086000211648FEF71CFD5B
:101F9000A9B21448FEF7D7FD01211248FEF714FD3F
:101FA00000BF4FF00070FEF71FFD0028F9D04FF082
:101FB0000070FEF7EDFC002404E04FF47A7001F0AD
:101FC00027FB641C022CF8D300200549086070BD73
:101FD000084A0008656E7465722025730A000000C7
:101FE0009C8122428000024000B58DB0012108464C
:101FF000FFF7D6FB26480290264803901020049055
:102000008001059000200690802007900020089015
:1020100009900A904FF480500B9000200C9002A978
:102020001D48FEF772FD1A4802901C4803900020DC
:1020300004904FF480600590002006908020079067
:102040000020089009900A904FF400500B90002057
:102050000C9002A910481430FEF757FD01210E48DC
:102060001430FEF7B1FC012202210B48FEF744FDBB
:102070000C208DF8040000208DF805008DF8060076
:1020800001208DF8070001A8FFF708FA0DB000BD88
:1020900004480040FC1C00201C000240FC180020EA
:1020A00000B587B02E4800F0C3F901210820FFF7E2
:1020B000A7FB01218804FFF783FB4FF48060ADF894
:1020C000180018208DF81B0003208DF81A0006A9AF
:1020D0002448FEF751FF4FF40060ADF818000420CB
:1020E0008DF81B0006A91F48FEF746FF4FF4E130AC
:1020F00002900020ADF80C00ADF80E00ADF8100015
:10210000ADF814000C20ADF8120002A9144800F03C
:1021100039FA0121124800F076F9012240F22441F7
:102120000F4800F00AFA27208DF8040000208DF8EF
:1021300005008DF8060001208DF8070001A8FFF7C3
:10214000ADF901228021064800F069F90122402101
:10215000034800F064F9FFF747FF07B000BD000037
:1021600000480040000C01400FB408B503A80090DF
:102170000B48009A029900F0ABFD0020009000216E
:102180000848FEF721FC4FF480610648FEF7DBFCAF
:1021900001210448FEF718FC01B05DF814FB0000B3
:1021A000FC1C00201C00024070B504460D460021B6
:1021B0000748FEF709FC06481C388462A9B20448A7
:1021C000FEF7C1FC01210248FEF7FEFB70BD0000D6
:1021D0001C00024000B587B001210420FFF710FB6E
:1021E00001218803FFF70CFB4FF40070ADF81800D5
:1021F00018208DF81B0003208DF81A0006A923482B
:10220000FEF7BAFE4FF48060ADF8180004208DF898
:102210001B0006A91D48FEF7AFFE4FF4E130029007
:102220000020ADF80C00ADF80E00ADF81000ADF8D0
:1022300014000C20ADF8120002A9154800F0A2F914
:102240000121134800F0DFF825208DF8040002205A
:102250008DF8050003208DF8060001208DF8070099
:1022600001A8FFF71BF9012240F22441084800F0C1
:1022700064F901228021064800F0D1F801224021B2
:10228000034800F0CCF807B000BD00000008014092
:102290000038014010B540F22551244800F023F9E0
:1022A000F0B140F22551214800F09EF81F4800F09F
:1022B000D5F9C4B21E4801680068401C1C4A106071
:1022C0001C4844540A2C0BD1002110460068801E83
:1022D000184A115400201649086001201649087058
:1022E00040F22441114800F0FEF8E8B10F480088A0
:1022F0000E48001D00881148FEF772FBC0F5806093
:102300000F49086000210E480068801E0D4A1154D4
:102310000A48FEF759FB4FF480610848FEF713FCAA
:1023200001210648FEF750FB10BD000000380140B7
:102330006C000020FC0000207000002058000240CB
:1023400084000020FC14002010B540F224410F4806
:1023500000F0C9F8C0B10D4800880C48001D008885
:102360000B48FEF73DFBC0F500700A4908600021EC
:102370000748FEF729FB4FF400710548FEF7E3FB21
:1023800001210348FEF720FB10BD0000004400407F
:102390006C0002408C00002010B540F224410F4830
:1023A00000F0A1F8C0B10D4800880C48001D00885D
:1023B0000B48FEF715FBC0F580600A490860002154
:1023C0000748FEF701FB4FF4806005493039486348
:1023D00001210348FEF7F8FA10BD00000048004054
:1023E000300002408800002010B50022002340F693
:1023F0006A14A14200D100BF0A1201249440A3B282
:10240000DC43048010BD21B1828942F400528281F4
:1024100004E082894DF6FF731A40828170471AB139
:10242000838A0B43838202E0838A8B4383827047D3
:1024300010B504462048844209D101218803FFF7E2
:10244000EFF900214FF48040FFF7EAF932E01B4832
:10245000844209D101214804FFF7C2F900214FF459
:102460000030FFF7BDF925E01548844209D101216C
:102470008804FFF7B5F900214FF48020FFF7B0F989
:1024800018E01048844209D10121C804FFF7A8F9D7
:1024900000214FF40020FFF7A3F90BE00A48844223
:1024A00008D101210805FFF79BF900214FF48010A6
:1024B000FFF796F910BD00000038014000440040CD
:1024C00000480040004C0040005000400246002000
:1024D000B1F5007F00D100BF13880B400BB1012084
:1024E00000E00020704770B502460024002300255C
:1024F000002040F66A16B14200D100BFC1F3421578
:1025000001F01F03012606FA03F3012D02D196897B
:10251000334006E0022D02D1168A334001E0968A4C
:1025200033400C12012606FA04F41688344013B125
:102530000CB1012000E0002070BDF0B5034600247E
:1025400000260025002040F66A17B94200D100BFDE
:102550001846C1F3421401F01F06012707FA06F5D9
:10256000012C01D10C3004E0022C01D1103000E02C
:1025700014301AB107682F43076002E00768AF43C1
:102580000760F0BD2DE9F04786B005460E460024F1
:10259000A24600BFA1460027B08900B100BF2F4668
:1025A0002C8A4CF6FF700440F08804432C82AC89DE
:1025B0004EF6F3100440B08831890843718908430E
:1025C0000443AC81AC8A4FF6FF400440B089044319
:1025D000AC8201A8FFF734F91F48874202D1DDF829
:1025E00010A001E0DDF80CA0A88900F4004040B183
:1025F0000AEBCA0000EB0A1031684900B0FBF1F8A1
:1026000007E00AEBCA0000EB0A1031688900B0FB52
:10261000F1F86420B8FBF0F004012009642101FB0B
:102620001089A88900F4004040B1322000EBC900B5
:10263000B0FBF1F000F00700044308E0322000EBAB
:1026400009106421B0FBF1F000F00F0004432C816D
:1026500006B0BDE8F08700000038014001468888D8
:10266000C0F308007047C1F308028280704700BFC2
:10267000FEE710B500F004F808B1FFF7FAFF10BD4F
:1026800010B5322000F068FA20B12FA000F0FCFA5B
:10269000012010BD36A000F0F7FA32213BA000F077
:1026A000B9FA20B13CA000F0EFFA0220F1E741A016
:1026B00000F0EAFA322147A000F0ACFA20B149A0BC
:1026C00000F0E2FA0320E4E74EA000F0DDFA1E205D
:1026D00000F0F2F920B154A000F0D6FA0420D8E7B7
:1026E00057A000F0D1FA4FF47A7000F071FF4FF468
:1026F0007A7000F06DFF322159A000F08BFA20B102
:102700005BA000F0C1FA0520C3E760A000F0BCFAAE
:10271000322166A000F07EFA20B167A000F0B4FA82
:102720000620B6E76BA000F0AFFA0A2000F000F92F
:1027300020B171A000F0A8FA0720AAE774A000F069
:10274000A3FA0020A5E700005749464920526573C7
:102750006574204661696C65642C20506C656173FA
:10276000652054727920416761696E0D0A0000008E
:1027700057494649205265736574205375636365F4
:10278000737366756C6C79210D0A000041542B43FC
:10279000574D4F44453D31005365742057494649D4
:1027A00020535441204D6F6465204661696C656417
:1027B0000D0A000053657420535441204D6F646529
:1027C000205375636365737366756C6C79210D0AAC
:1027D0000000000041542B43574155544F434F4E86
:1027E0004E3D300043616E63656C204175746F200F
:1027F000436F6E6E656374204661696C65640D0A93
:102800000000000043616E63656C204175746F20A9
:10281000436F6E6E6563742053756363657373668F
:10282000756C6C79210D0A00436F6E6E65637420C0
:10283000726F75746572204661696C640D0A0000E0
:10284000436F6E6E65637420526F757465722053AA
:1028500075636365737366756C6C79210D0A00008E
:1028600041542B4349504D4F44453D310000000039
:1028700053657420446972656374204D6F646520EC
:102880004661696C65640D0A0000000053657420A0
:10289000446972656374204D6F646520537563638A
:1028A00065737366756C6C79210D0A0041542B4376
:1028B00049504D55583D30005365742053696E673B
:1028C0006C65204D6F6465204661696C65642E0DF2
:1028D0000A0000005365742053696E676C65204DD3
:1028E0006F646520537573636365737366756C6C91
:1028F00079210D0A00000000436F6E6E656374203D
:10290000536572766572204661696C65640D0A00D4
:10291000436F6E6E656374205365727665722053E3
:1029200075636365737366756C6C79210D0A0000BD
:1029300010B5044600202D4908604FF480612C48F2
:10294000FDF777FC41F690722AA12EA0FFF70CFC50
:1029500041F6907227A135A000F096F90CE06420B2
:1029600000F036FE3BA12248FDF76EFC00B107E007
:1029700021463AA000F088F9201EA4F10104EED10E
:1029800000BF37A000F080F9002C01DC012010BD51
:1029900034A000F079F90020144908604FF48061F8
:1029A0001348FDF746FC3BA0FFF7DEFB10E0642078
:1029B00000F00EFE0E493BA000F066F93BA10C486A
:1029C000FDF742FC00B107E0214624A000F05CF9CD
:1029D000201EA4F10104EAD100BF21A000F054F9A7
:1029E000002C01DC0220D2E70020D0E78800002084
:1029F000FC1800203139322E3136382E31302E3845
:102A00000000000041542B43495053544152543D5F
:102A100022544350222C222573222C25640D0A3384
:102A200033333333333333333300000041542B43D8
:102A3000495053544152543D22544350222C222594
:102A400073222C25640D0A3131313131313131316C
:102A500031000000434F4E4E454354002564200092
:102A60000D0A0000436F6E6E6563742053657276C5
:102A70006572205375636365737366756C6C792C2E
:102A80002053746172742073656E64206461746194
:102A90000D0A000041542B43495053454E440D0A42
:102AA0000000000025730D0A000000000D0A4F4BC6
:102AB0000D0A0D0A3E00000010B50446002014491E
:102AC00008604FF480611348FDF7B3FB12A215A113
:102AD00016A0FFF749FB0DE04FF47A7000F078FD87
:102AE00018A10C48FDF7B0FB00B107E0214618A083
:102AF00000F0CAF8201EA4F10104EDD100BF15A01A
:102B000000F0C2F8002C01DC012010BD0020FCE721
:102B100088000020FC180020313830383630383832
:102B200030393500323730340000000041542B4337
:102B3000574A41503D222573222C222573220D0A2B
:102B4000000000005749464920474F542049500093
:102B5000256420000D0A000010B50446002013492A
:102B600008604FF4FA7000F033FD01201049C1F8FD
:102B7000BC010CE0642000F02BFD0EA10F48FDF716
:102B800063FB00B107E021460DA000F07DF8201E98
:102B9000A4F10104EED100BF0AA000F075F8002CEA
:102BA00001DC012010BD0020FCE70000BC01214237
:102BB000000021427265616479000000FC18002069
:102BC000256420000D0A000008B501210420FEF74D
:102BD00017FE01210846FEF713FE01210A48FEF701
:102BE00057FA4FF40040ADF8000003208DF80200C2
:102BF00010208DF8030069460448FEF7BDF9012056
:102C00000349086008BD00000002300000080140D0
:102C1000BC01214270B505460C46002013490860EE
:102C20004FF480611248FDF704FB294611A0FFF71D
:102C30009BFA0CE0642000F0CBFC10A10C48FDF7DF
:102C400003FB00B107E021460DA000F01DF8201E97
:102C5000A4F10104EED100BF0AA000F015F8002C89
:102C600001DC012070BD0020FCE70000880000208E
:102C7000FC18002025730D0A000000004F4B0000D7
:102C8000256420000D0A00000FB4054B10B503A900
:102C9000044A029800F000F910BC5DF814FB000033
:102CA00059360008F80000200FB4084B10B504A9ED
:102CB00002AA039800F0F0F8044602A9002000F0F0
:102CC00082FC204610BC5DF814FB0000C7350008EC
:102CD00037B514460846064B6A46214600F0DCF834
:102CE00004466946002000F06EFC20463EBD000010
:102CF000C735000802E008C8121F08C1002AFAD12F
:102D000070477047002001E001C1121F002AFBD16B
:102D1000704700002DE9FF5F82B00021DDE904303B
:102D2000020DDDF840B0034318D044F61050A2F273
:102D3000FF3242431514119801281FD0A5EB0B0058
:102D4000401C5FEA000A4FF000064E4FDFF8389152
:102D5000B046504615D5CAF1000413E0119801247D
:102D60004AA3012801D16FEA0B010298119AC0E928
:102D70000031C0E9024206B0BDE8F09FCBF100008F
:102D8000DFE704460021404A491842EB0450CDE9F0
:102D9000001012E0E00707D032463B464046494665
:102DA000FDF764FA8046894632463B46104619468E
:102DB000FDF75CFA06460F466410002CEAD1DDE907
:102DC0000401DDE90023BAF1000F06DAFDF74EFA3F
:102DD00042464B46FDF74AFA05E0FDF7B9FA42468E
:102DE0004B46FDF7B5FA04460E460022284BFDF788
:102DF0001FFD03D84FF0FF30014607E00022254BAE
:102E000020463146FDF754FCFDF7F9FC102409E09B
:102E1000002C0ADB0A220023FDF785FB039B3032DE
:102E20001A55641E50EA0102F2D1641C039AC4F1DF
:102E300011031444119A012A03D0012208430DD131
:102E40000AE0084304D000204FF0110B119072E704
:102E5000A3EB0B056D1E0DE05B4504DD4FF000029A
:102E600005F1010504E003DA4FF00002A5F10105C8
:102E7000002AECD002981199C0E90231C0E900455E
:102E800079E70000000014400000F03F300000002F
:102E90000000F0430000E03F2DE9FF4F95B09B4656
:102EA0008946064600250FE2252877D100242746CB
:102EB000F84A0121059400E0044316F8013F203B45
:102EC00001FA03F01042F7D130782A2811D06FF0C0
:102ED0002F033078A0F13002092A16D8059A44F061
:102EE000020402EB820203EB42021044761C0590BE
:102EF000EFE759F8042B0592002A03DA504244F414
:102F00000054059044F00204761C30782E2816D127
:102F100016F8010F44F004042A280DD06FF02F0298
:102F20003078A0F13003092B09D807EB870302EBB7
:102F30004303C718761CF3E759F8047B761C3078F6
:102F40006C280FD006DC4C2817D068280DD06A28D2
:102F500014D104E0742810D07A280FD10DE044F485
:102F600000140AE044F4801401E044F44014727840
:102F7000824202D104F58014761C761C30786628D3
:102F80000BD013DC582877D009DC002875D04528F1
:102F9000F6D04628F4D047281AD19DE118E06328DE
:102FA00035D0642879D0652812D195E1702873D086
:102FB00008DC6728F1D069286FD06E280DD06F2803
:102FC00006D1B5E073282CD0752875D0782874D038
:102FD0005A46179990476D1C75E1C4F302500228B8
:102FE00009D003280DD0D9F8001004280DD00D60A9
:102FF00009F1040967E1D9F80010EA17C1E90052A4
:10300000F6E7D9F800100D80F2E70D70F0E719F837
:10301000041B8DF8001000208DF80100EA46012005
:1030200003E059F804AB4FF0FF3061074FF00001A7
:1030300002D40DE008F101018846B9420FDA80455B
:10304000F8DB1AF808100029F4D108E008F10101B2
:1030500088468142FADB1AF808100029F6D1059853
:103060005B46A0EB080721463846179A00F094FA11
:10307000284400EB080507E04DE029E10DE01AF8CF
:10308000010B5A4617999047B8F10108F7D25B46F1
:1030900021463846179A13E142E00A220092C4F30F
:1030A00002524FF0000A022A08D059F804CB032A32
:1030B0004FEAEC710AD00DE029E02AE009F107019E
:1030C00021F00702F2E802C1914609E00FFA8CFCF8
:1030D0004FEAEC71042A03D14FFA8CFC4FEAEC71F1
:1030E000002907DA0A460021DCF1000C61EB02013D
:1030F0002D2202E0220504D52B228DF80420012286
:1031000003E0E20701D02022F7E7904659E00A21C8
:1031100002E010220DE010214FF0000A00910BE0B8
:1031200010224FF0000A44F004040827009203E044
:1031300008224FF0000A0092C4F30252022A05D07E
:1031400059F804CB0021032A08D009E009F107014E
:1031500021F00702F2E802C1914605E01FFA8CFC5B
:10316000042A01D10CF0FF0C4FF00008220728D5EB
:10317000702806D0009B83F0100353EA0A0305D0A1
:103180000EE040228DF80420012208E05CEA0102F2
:1031900006D030228DF804208DF8050002229046DA
:1031A000009B83F0080353EA0A030AD15CEA010298
:1031B00001D1620705D530228DF804204FF00108B7
:1031C0007F1E582804D034A003900EA802900DE072
:1031D00036A0F9E753466046009AFDF7A4F9844605
:1031E0000398825C0298401E029002705CEA010023
:1031F000F0D1029806A9081A00F1200A600702D54A
:1032000024F4803400E00127574502DDA7EB0A00D3
:1032100000E0002000EB0A01009005984144401AAC
:103220000590E00306D45B462146179A059800F006
:10323000B3F90544002706E001A85A46C05D179976
:1032400090476D1C7F1C4745F6DBE0030CD55B46C1
:103250002146179A059800F09FF9054404E03020B4
:103260005A46179990476D1C0099481E00900029F6
:10327000F5DC08E0029802995A460078491C029150
:10328000179990476D1CBAF10001AAF1010AF1DC0F
:1032900065E100000928010030313233343536371A
:1032A0003839616263646566000000003031323392
:1032B0003435363738394142434445460000000032
:1032C00000F058F90544761C307800287FF4ECAD06
:1032D00019B02846BDE8F08F620700D4062709F12F
:1032E000070222F0070CFCE80223E14603F0004845
:1032F0005FEA080C02D00FF2702C0DE05FEA045C6C
:1033000002D50FF2682C07E05FEAC47C02D00FF20E
:10331000602C01E0AFF2700C4FF0FF3823F0004357
:10332000CDF850C065280CD006DC452809D04628C9
:103330001DD047283DD13DE0662818D067287ED1B2
:1033400038E00021112F01DB112000E0781CCDE9CD
:10335000000106A90EA8FFF7DDFCDDE90F010E9ABA
:1033600003910021009207F1010A04914DE04FF012
:1033700000400097CDE9011006A90EA8FFF7CAFC8E
:10338000DDE90F0203920E9B11990022DDF80CA0DB
:103390000093049211B9791C00EB010AB7EB0A0003
:1033A00004D4C0F1FF3007F1010A0490AAEB070032
:1033B000019044E0012F00DA01270021112F01DDE7
:1033C000112000E03846CDE9000106A90EA8FFF75C
:1033D000A1FCDDE90F010E9A0391002104910092F6
:1033E000BA4621070CD40399514500DA8A46BAF14E
:1033F000010F05DD009AAAF10101515C302908D0C6
:10340000B84202DA10F1040F06DA0121CDE9011009
:1034100015E0AAF10101E9E7002805DC049901445F
:103420000491AAEB000102E0411C514500DD8A46EF
:103430000499401A401C01904FF000400290200770
:1034400004D40198504501DBCDF8048000208DF8AC
:103450004F0002980DF14F07B0F1004F25D02B20FF
:103460000E9002984FF0020800280CDA40420290B9
:103470002D200E9007E00A210298FDF73EF830312A
:10348000029007F8011DB8F10001A8F10108F2DC73
:1034900002980028EFD1791E0E980870307800F05D
:1034A000200040F0450007F8020D12A8C01B00F1F3
:1034B00007081498007800B1012000EB0A01019878
:1034C00001EBE07105984144401A401E0590E0036D
:1034D00006D45B462146179A059800F05DF805442E
:1034E0001498007818B15A46179990476D1CE0035C
:1034F00024D55B462146179A059800F04DF80544FF
:103500001CE00498002807DBDDE90301884203DDA5
:103510000098405C179901E0179930205A4690476F
:10352000049805F10105401C04900198401E01908B
:1035300004D12E205A46179990476D1CBAF100010C
:10354000AAF1010ADDDC05E017F8010B5A461799CC
:1035500090476D1CB8F10001A8F10108F4DC5B464E
:103560002146179A0598ABE62D0000002B000000BD
:10357000200000002DE9F041044600251E461746B4
:10358000880404D405E039462020B0476D1C641E31
:10359000F9D52846BDE8F0812DE9F0410446002523
:1035A0001E469046C80301D5302700E02027880436
:1035B00004D505E041463846B0476D1C641EF9D578
:1035C0002846BDE8F0810A68531C0B6010707047F4
:1035D00070B5044601F0C4F8012810D00B480088EB
:1035E000844206D309480088B4FBF0F5284600F071
:1035F000C1FC06480088B4FBF0F100FB11444FF415
:103600007A7104FB01F000F003F870BD2A0000207D
:1036100070B5034600224FF0E02675690D4E3678EE
:1036200003FB06F44FF0E026B16910E04FF0E0260E
:10363000B06988420BD0884202D20E1A324402E0AE
:103640002E1A0E4432440146A24200D300E0EDE7B8
:1036500000BF70BD2800002070B504460D4600BFB5
:1036600040210548FEF732FF0028F9D0A1B20248F8
:10367000FEF7F9FF204670BD003801401CB5FDF78C
:1036800055F94FF4A060FDF741FFFDF7DDFAFEF7B5
:10369000F0FF0020012103466422CDE900100EA1B5
:1036A0000F4801F02DF8002003213C236422CDE9CE
:1036B00000100CA10C4801F023F800200221034661
:1036C0006422CDE9001009A10A4801F019F800F0C0
:1036D000FBFE00201CBD000054656D700000000062
:1036E000754400084C6564003D410008525334386D
:1036F00035000000ED3F00082DE9F04105460E467B
:103700001C4807681C480068001D00F001FB50B908
:103710001948006890F82C10012088401749096862
:10372000814316480160681C38B936B112480168F7
:10373000091D134800F02AFB1AE07C190E480068A6
:103740004460BC4207D20C480168091D0D4800685E
:1037500000F002FB0CE008480168091D0A480068F7
:1037600000F0FAFA09480068844201D20748046070
:10377000BDE8F081AC00002098000020B0000020DF
:10378000CC270020A00000209C000020C8000020C2
:1037900010B5044600F006FB23480068401C22498F
:1037A00008602248006840B9204804600846006864
:1037B00001280DD100F036F90AE01D48006838B93B
:1037C0001A480068C06AE16A884201D81748046054
:1037D00018480068401C1749086094F82C10012014
:1037E000884015490968084313490860E16A01EBFC
:1037F0008101124A02EB8100211D00F0C7FA00F09E
:1038000015FB0B48006868B108480068C06AE16AA7
:10381000884207D24FF0805009490860BFF34F8FAC
:10382000BFF36F8F10BD0000A8000020980000209B
:10383000B4000020C4000020B0000020FC240020C0
:1038400004ED00E070B523E000F092FE134800683C
:1038500008B9012000E00020054601F043F8BDB999
:1038600000F0A0FA0D48C068C468201D00F050FAAE
:103870000B480068401E0A4908600A480068401E5C
:103880000849086000F0D2FA204600F00DF800BFA9
:10389000044800680028D7D170BD0000B827002078
:1038A000A8000020A400002010B50446206B00F002
:1038B000F5FA204600F0F2FA10BD000030B54FF4E2
:1038C0001043174800F007042CB1C01D20F007007A
:1038D000134C041B1B1B0246124C22600024114D8A
:1038E0006C60D018083820F007000F4C20600024CE
:1038F0000D4D2D686C600C4D2D682C601146441ADE
:103900004C60094C24680C60084D4C682C60084DD4
:103910004C682C604FF00044064D2C6030BD000018
:10392000E0270020D4000020DC000020E40000207C
:10393000E0000020E800002000BFFFF783FF0648FA
:1039400000680128F9D94FF0805004490860BFF39E
:103950004F8FBFF36F8FF0E7FC24002004ED00E0F1
:103960002DE9FF5F81460E469246DDE90E7B109CF5
:10397000AAF10100216B01EB800828F0070808F08C
:10398000070008B9012000E0002028B940F22B32DE
:103990001AA120A0FFF778F9002507E0715D04F176
:1039A00034004155705D00B902E06D1C102DF5D357
:1039B00000BF002143200155202F00D31F27E762BD
:1039C000201D00F0C6F904F1180000F0C2F92461CE
:1039D000C7F12000A06164620020606484F84800A0
:1039E00049464046039A00F081F92060BBF1000F80
:1039F00001D0CBF80040BDE8FF9F00004150505C73
:103A00004672656552544F535C7461736B732E63D9
:103A1000000000004572726F723A25732C25640D08
:103A20000A00000010B5002407E004EB84010F4AEF
:103A300002EB810000F080F9641C202CF5D30C48C7
:103A400000F07AF90B4800F077F90B4800F074F9B0
:103A50000A4800F071F90A4800F06EF90448094973
:103A6000086004480849086010BD0000FC240020DC
:103A70007C27002090270020A4270020B8270020C2
:103A8000CC2700209C000020A000002010B501469B
:103A9000164800E0006803688B42FBD30246436887
:103AA00013448B4204D143684C682344436001466D
:103AB0000A464B6813440468A34211D10C4C0368B6
:103AC0002468A34208D04B680468646823444B60B0
:103AD00003681B680B6005E0054B1B680B6001E089
:103AE00003680B60884200D0016010BDD400002044
:103AF000DC0000200A490968096809B9012100E0D1
:103B0000002121B14FF0FF31064A116006E004495F
:103B10000968C968C868034A4168116070470000B5
:103B20009C000020C80000200B480068401C08B919
:103B3000012000E0002020B9F42208A112A0FFF724
:103B4000A3F800BF502080F31188BFF34F8FBFF35D
:103B50006F8F00BF00BFFEE7EC0000204150505CBB
:103B60004672656552544F535C706F727461626C3B
:103B7000655C525644535C41524D5F434D335C701B
:103B80006F72742E630000004572726F723A257373
:103B90002C25640D0A0000002DE9F04104464FF089
:103BA000000800F0E5FC3E48006808B9FFF786FE13
:103BB0003C480068204000285FD1A4B1083404F0DC
:103BC000070080B104F00700C0F10800044404F0CD
:103BD000070008B9012000E0002020B9BF2232A16F
:103BE0003BA0FFF751F8002C47D03D4800688442C5
:103BF00043D83C4E3046056801E02E462D68686883
:103C0000A04202D228680028F7D1254800688542E2
:103C100033D0306800F10808286830606868001BFD
:103C2000102813D92F1907F0070008B9012000E068
:103C3000002020B9EC221CA125A0FFF725F8686818
:103C4000001B78606C603846FFF720FF24496868E5
:103C50000968081A2249086008460068224909686C
:103C6000884203D21E4800681F4908600D496868F1
:103C70000968084368600020286000F033FE08F0FF
:103C8000070008B9012000E0002028B94FF496721F
:103C900005A10FA0FEF7F8FF4046BDE8F081000047
:103CA000DC000020E80000204150505C4672656551
:103CB00052544F535C706F727461626C655C4D65F9
:103CC0006D4D616E675C686561705F342E630000E6
:103CD0004572726F723A25732C25640D0A0000003C
:103CE000E0000020D4000020E4000020001F4FF07E
:103CF00080730360001F21F001030360001F034B6A
:103D0000036014380260203870470000293B000827
:103D100001460A69D1E901309860D1E90103586090
:103D20005068884201D1886850600020086110689E
:103D3000401E10601068704700F1080141604FF0AC
:103D4000FF31816000F10801C16001610021016063
:103D5000704700210161704710B502460B685C1C7A
:103D60000CB9106907E002F1080000E040684468FF
:103D700024689C42FAD944684C604C68A160886011
:103D800041600A611468641C146010BD42684A6096
:103D900093688B60936859609160086103685B1C4D
:103DA0000360704710B500BF502080F31188BFF347
:103DB0004F8FBFF36F8F00BF0B480068401C0A494C
:103DC00008600846006801280DD108480068C0B2A4
:103DD00008B9012000E0002028B94FF4BD7204A109
:103DE0000EA0FEF751FF10BDEC00002004ED00E036
:103DF0004150505C4672656552544F535C706F720F
:103E00007461626C655C525644535C41524D5F4331
:103E10004D335C706F72742E630000004572726FD8
:103E2000723A25732C25640D0A00000010B50B486A
:103E3000006828B940F2811209A114A0FEF724FFFE
:103E400006480068401E054908600846006820B919
:103E5000002080F3118800BF00BF10BDEC000020DF
:103E60004150505C4672656552544F535C706F729E
:103E70007461626C655C525644535C41524D5F43C1
:103E80004D335C706F72742E630000004572726F68
:103E9000723A25732C25640D0A00000070B50646A1
:103EA0003546002E35D0083D2C461A496068096811
:103EB000084008B1012000E0002028B94FF4A072AA
:103EC00015A11FA0FEF7E0FE206808B9012000E060
:103ED000002028B940F241120FA119A0FEF7D4FE2C
:103EE0000C4960680968084098B1206888B9094998
:103EF000606809688843606000F03AFB14496068B4
:103F000009680844124908602046FFF7BFFD00F029
:103F1000E9FC70BDE80000204150505C46726565C8
:103F200052544F535C706F727461626C655C4D6586
:103F30006D4D616E675C686561705F342E63000073
:103F40004572726F723A25732C25640D0A000000C9
:103F5000E0000020064800684FF47A71B0FBF1F0F1
:103F6000401E4FF0E02148610720086170470000C3
:103F70001400002070B504460025ACB10F4800685D
:103F800008B9012000E0002028B940F2CF420CA17E
:103F900011A0FEF779FE00F0EBFA00212046FFF7B2
:103FA000ABFB00F09FFC05463DB94FF080500E4939
:103FB0000860BFF34F8FBFF36F8F70BDD00000203C
:103FC0004150505C4672656552544F535C74617346
:103FD0006B732E63000000004572726F723A257396
:103FE0002C25640D0A00000004ED00E090B000BF35
:103FF0007EE0282106A8FCF71CF9002401203D4999
:1040000008700320487000208870C8700871022072
:10401000487106213748FDF787F8044635498C7109
:104020004FEA1429084680F807900821FDF7A2FFFF
:1040300057E031480068002853D030480078012804
:104040004ED1092002902D4909792C4AD27841EAB3
:104050000220FCF7ECF907460022294BFCF778F91F
:104060000546FCF72EFA049024498979234A5279AF
:1040700041EA0220FCF7DBF907460022204BFCF75F
:1040800067F90546FCF71DFA0590102102A8FEF716
:104090008BF80598FCF702FA05460E460498FCF7E3
:1040A000FDF907463A460B4616A0CDE90056FEF745
:1040B000EBFD0498FCF7D9F983460598FCF7D5F990
:1040C000824653465A4619A106A8FEF7EDFD06AAF8
:1040D00000210420FDF78AFA00200749086001E06A
:1040E00000BFA6E700BF41F27070FFF743FF00BFBB
:1040F0007FE70000FC2000208C000020FC22002034
:10410000000024402A2A2A2A2074656D70203D2050
:10411000252E3266206D6F6973203D20252E326674
:10412000202A2A2A2A2A2A0A0000000054656D70D3
:104130003A2564204D6F69733A2564008AB00546BC
:104140002C4643E13226A248006800287ED0A148D0
:1041500001680891406809909FA00899FEF794FDB6
:104160000898012804D0052835D0072832D153E01B
:104170001022984904A8FCF743F80698012806D1B4
:104180000798012803D100209A4908601AE0069890
:10419000012805D1079818B901209649086011E057
:1041A0000698022806D10798012803D100209249D9
:1041B000086007E00698022804D1079810B901208A
:1041C0008D49086002200190012003900C2101A874
:1041D000FDF7EAFFECE010227E4904A8FCF710F896
:1041E0000698012806D10798012803D181490C318E
:1041F000086008E00698012805D1079818B9002042
:104200007C490C31086006200190012003900C21AC
:1042100001A8FDF7C9FFCBE06E4801680591416830
:104220000691806807900798082824D2DFE800F0FC
:10423000B404247A975E6C4180217048FCF772FFC9
:1042400010216E48FCF76CFFA1B200E0BAE04FF01D
:104250008040FDF76EFD01216848FCF763FF0421F3
:104260006648FCF75DFFA1B26548FDF764FD214695
:1042700064A0FEF709FD8FE010216048FCF752FFB3
:1042800080215E48FCF74CFFA1B24FF08040FDF763
:1042900050FD04215948FCF745FF01215748FCF720
:1042A0003FFFA1B25648FDF746FD5BA0FEF7ECFCD0
:1042B00072E010215148FCF733FF80214F48FCF792
:1042C0002FFF00214FF08040FDF733FD04214B48C4
:1042D000FCF726FF01214948FCF722FF002148484E
:1042E000FDF729FD50A0FEF7CFFC55E0A41CA1B2BC
:1042F0004FF08040FDF71DFDA1B24148FDF71BFDC9
:104300004DA0FEF7C1FC47E0A41EA1B24FF08040D3
:10431000FDF70FFDA1B23A48FDF70DFD49A0FEF7EC
:10432000B3FC39E080213548FCF7FCFE102133480E
:10433000FCF7F6FEA1B24FF08040FDF7FAFC042135
:104340002E48FCF7EFFE01212C48FCF7E9FEA1B254
:104350002B48FDF7F0FC3FA0FEF796FC1CE0102177
:104360002648FCF7DFFE80212448FCF7D9FEA1B2E5
:104370004FF08040FDF7DDFC01212048FCF7D2FE24
:1043800004211E48FCF7CCFEA1B21D48FDF7D3FC6A
:1043900034A0FEF779FC00BF00BF082002900C207B
:1043A0000390012004900C2102A8FDF7FDFE00BF40
:1043B00000BF0020064908604FF480610548FBF704
:1043C00038FF00BF3220FFF7D5FD00BFBAE600007E
:1043D00088000020FC1800202A2A2A2A2A206D732F
:1043E000676964203D202564202A2A2A2A2A2A2A4D
:1043F0002A0A00009481214294012342000C0140CA
:10440000000400402A2A2A2046524F4E5425642098
:104410002A2A2A0A000000002A2A2A204241434B65
:10442000202A2A2A0A0000002A2A2A2053544F5000
:10443000202A2A2A0A0000002A2A2A205550202A47
:104440002A2A0A002A2A2A20444F574E202A2A2A9A
:104450000A0000002A2A2A204C454654202A2A2AEB
:104460000A0000002A2A2A205249474854202A2AB2
:104470002A0A00000EB517E041F2883603200090AA
:10448000FCF764FB02900C216846FDF78DFE029854
:10449000FCF704F8044622460B4604A0FEF7F4FBA2
:1044A0003046FFF767FD00BFE6E700002A2A2A2A08
:1044B0002074656D70203D20252E3266202A2A2A20
:1044C0002A2A2A0A000000001CB5184800210B46C1
:1044D0008022CDE9001016A1174800F011F904461A
:1044E000012C15D100BF502080F31188BFF34F8FEE
:1044F000BFF36F8F00BF4FF0FF30104908600120FD
:104500000F49086000200F49086000F08FF80BE0A9
:10451000601C08B1012000E0002028B940F284723C
:1045200009A10FA0FEF7B0FB1CBD0000CC000020CD
:1045300049444C450000000039390008C8000020FB
:10454000B4000020AC0000204150505C467265650C
:1045500052544F535C7461736B732E630000000000
:104560004572726F723A25732C25640D0A000000A3
:1045700002480068401C014908607047D0000020D4
:1045800010B51B48006818B101201A4908602DE0D9
:1045900000201849086018480068B0FA80F0C0F19F
:1045A0001F0404EB8400154951F8200008B10120D4
:1045B00000E0002028B940F6F62211A116A0FEF76F
:1045C00063FB04EB84010D4A02EB810041684968FA
:1045D000416000F1080142688A4202D1416849689D
:1045E00041604168C968104A116000BF10BD0000F9
:1045F000D0000020BC000020B0000020FC240020DF
:104600004150505C4672656552544F535C746173FF
:104610006B732E63000000004572726F723A25734F
:104620002C25640D0A000000980000201CB52248CB
:10463000014609780191FF2102461170014609786F
:1046400000919DF8001001F050011C4A11700721E3
:104650001B4A116009E01A490968491E184A11608D
:104660009DF800104906090E00919DF8001001F018
:1046700080018029EFD0124909680902104A1160AF
:104680001146098801F4E06111600B4A019911702B
:104690000C48006840F470000A4908600846006849
:1046A00040F070400860FFF755FC002006490860A4
:1046B000FBF75AFD00201CBD00E400E0F0000020E4
:1046C000F400002020ED00E0EC00002010B500BF59
:1046D000502080F31188BFF34F8FBFF36F8F00BF5F
:1046E00000F04EF818B14FF080500449086000BF48
:1046F000002080F3118800BF10BD000004ED00E031
:104700002DE9FF4F85B0804689461746DDE912AB9B
:10471000B800FFF741FA064656B14C20FFF73CFAC5
:1047200004460CB1266304E03046FFF7B7FB00E017
:1047300000247CB10020CDE900ABCDE902403A462F
:1047400049464046089BFFF70BF92046FFF720F843
:10475000012501E04FF0FF35284609B0BDE8F08F94
:104760000549096809B9012005E00449096809B942
:10477000022000E000207047B4000020D00000209C
:104780002DE9F0414FF0000841480068002872D13F
:1047900040480068451C3F480560EDB93E48006848
:1047A000006808B9012000E0002028B940F6D912BD
:1047B0003AA140A0FEF768FA374807684148006808
:1047C000354908603F4807603F480068401C3E4943
:1047D0000860FFF78FF900BF3C48006885423CD372
:1047E00000BF2D480068006808B9012000E00020E3
:1047F00020B14FF0FF30354908602DE026480068B1
:10480000C068C4686668B54202D23048066023E0DA
:10481000201DFFF77DFAA06A18B104F11800FFF718
:1048200077FA94F82C100120884029490968084338
:1048300027490860E16A01EB8101264A02EB810009
:10484000211DFFF7A3FA2449E06A0968C96A884272
:10485000C7D34FF00108C4E700BF1F480068C06A13
:1048600000EB80001B4951F82000012801D94FF0CE
:10487000010805E0FFE719480068401C1749086077
:104880001748006808B14FF001084046BDE8F081C4
:10489000D0000020AC0000209C0000204150505C63
:1048A0004672656552544F535C7461736B732E632B
:1048B000000000004572726F723A25732C25640D5A
:1048C0000A000000A0000020C0000020C800002056
:1048D000B0000020FC24002098000020B800002038
:1048E000BC00002070B5002400263448006828B9B8
:1048F0004FF4FD6232A138A0FEF7C6F9FFF752FA75
:104900002E480068401E2D490860084600680028AF
:104910004FD13548006800284BD024E03348C068A8
:10492000C46804F11800FFF7F3F9201DFFF7F0F950
:1049300094F82C10012088402D49096808432C491F
:104940000860E16A01EB81012A4A02EB8100211D26
:10495000FFF71CFA2849E06A0968C96A884202D34D
:104960000120264908602148006808B9012000E0BC
:1049700000200028D2D00CB1FFF7BCF82048056811
:1049800065B100BFFFF7FCFE10B101201B490860B4
:104990006D1E002DF6D100201949086017480068E7
:1049A00038B10126300717490860BFF34F8FBFF3B6
:1049B0006F8FFFF73BFA304670BD0000D00000203B
:1049C0004150505C4672656552544F535C7461733C
:1049D0006B732E63000000004572726F723A25738C
:1049E0002C25640D0A000000A8000020A427002048
:1049F000B0000020FC24002098000020BC00002013
:104A0000B800002004ED00E055415254325F545884
:104A100046554E43004D6F646275735F48616E6426
:104A20006C655F4D617374657200000000000000EA
:104A30000000000000000000000000000000000076
:104A4000F8330000000000000000000010000C001F
:104A5000020010000C000200000000004004C03FF3
:104A600078044004C03F78040000000070188820DB
:104A70008820FCFF0821301E0000F0000831F00CF7
:104A80008003601E1821001E0000001EF021082374
:104A9000882C7019002700210010000012000E0061
:104AA0000000000000000000000000000000000006
:104AB000E007181804200240000000000240042013
:104AC0001818E007000000000000400240028001CA
:104AD000F00F8001400240020000000000010001D0
:104AE0000001E00F000100010001000000900070D3
:104AF00000000000000000000000000000010001B4
:104B00000001000100010001000000000030003041
:104B1000000000000000000000000000006000181D
:104B20000007C0003800040000000000E00F101073
:104B3000082008201010E00F0000000000001020E6
:104B40001020F83F002000200000000070300828EE
:104B5000082408220821F030000000003018082046
:104B6000082108218822701C000000000006800532
:104B700040243024F83F002400240000F819882045
:104B8000882088200811080E00000000E00F101196
:104B9000882088209020001F0000000018000800D6
:104BA000083E88016800180000000000701C882280
:104BB000082108218822701C00000000F001081262
:104BC000082208221011E00F000000000000000081
:104BD000C030C030000000000000000000000000F5
:104BE00080E00000000000000000000000018002E2
:104BF000400420081010082000000000400240027D
:104C00004002400240024002000000000820101054
:104C100020084004800200010000000070004800ED
:104C200008300837880070000000C0073018C82717
:104C30002828E82F1028E01700000020003CC0239F
:104C40003802E0020027003800200820F83F8820C2
:104C5000882088207011000E0000C007301808203E
:104C6000082008200810380800000820F83F082015
:104C7000082008201010E00F00000820F83F8820CE
:104C80008820E8230820101800000820F83F88201A
:104C90008800E803080010000000C0073018082052
:104CA00008200822381E000200000820F83F0821D2
:104CB000000100010821F83F08200000082008201A
:104CC000F83F082008200000000000C00080088095
:104CD0000880F87F0800080000000820F83F8820BE
:104CE000C00128261838082000000820F83F0820B6
:104CF000002000200020003000000820F83FF801CC
:104D0000003EF801F83F082000000820F83F30205E
:104D1000C00000070818F83F0800E00F1010082036
:104D2000082008201010E00F00000820F83F08219C
:104D3000080108010801F0000000E00F1010082829
:104D4000082808301050E04F00000820F83F882065
:104D500088008803880C703000200000703888209C
:104D6000082108210822381C00001800080008202B
:104D7000F83F08200800180000000800F81F08206D
:104D8000002000200820F81F08000800780088078D
:104D90000038000EC801380008000800F803003E83
:104DA000F801003EF8030800000008201830682CC5
:104DB00080038003682C1830082008003800C820C1
:104DC000003FC820380008000000102008380826DE
:104DD0000821C8203820081800000000000000004A
:104DE000FE7F024002400240000000000400380044
:104DF000C0010006003800C0000000000240024070
:104E00000240FE7F000000000000000000000400DF
:104E1000020002000400000000000080008000800A
:104E200000800080008000800080000002000200FE
:104E300004000000000000000000000000198024B1
:104E400080248012003F002000001000F03F00117D
:104E5000802080200011000E00000000000E0011D4
:104E6000802080208020001100000000001F802092
:104E7000802080209010F03F00200000001F802440
:104E800080248024802400170000000080208020DF
:104E9000E03F90209020200000000000006B8094F4
:104EA000809480948093806000001020F03F002167
:104EB000800080008020003F00200000802098209B
:104EC000983F0020002000000000000000C000808B
:104ED00080809880987F000000001020F03F002420
:104EE0000006802980308020000000001020102063
:104EF000F83F00200020000000008020803F80203C
:104F00008000803F80208000003F8020803F002183
:104F1000800080008020003F00200000001F8020D3
:104F2000802080208020001F0000808080FF009172
:104F3000802080200011000E00000000000E0011F3
:104F400080208020009180FF008080208020803F92
:104F500000218020800080010000000000338024B8
:104F600080248024802480190000000080008000BC
:104F7000E01F80208020001000008000801F0020A3
:104F8000002000208010803F002080008003800CE3
:104F90000030800C8003800000008001800E003013
:104FA000800C80070038800680010000802080315E
:104FB000800E002E8031802000008000808180865D
:104FC0000078001880068001800000008021803079
:104FD000802C802280218030000000000000000032
:104FE00000000001FC3E0240024000000000000002
:104FF0000000FFFF00000000000002400240FC3EF5
:10500000000100000000000000000000020001009C
:105010000200020004000200000010046004027E8E
:105020008C8100400830F90F4E40C87F2000584462
:105030004F84487FC80408040000000102010201F7
:105040007A3D4A254A254A254A257A3D0241028170
:105050007E7F02010201000100000000F87F0C21A8
:105060000B2108210821F87F400030008F00084301
:1050700008800840F83F0000000010009400530032
:1050800032FF1E4932495249104900497E4942497E
:1050900042FF42007E00000000000800CCFF4A12E0
:1050A000491248524A92CC7F180000007F7E8888BF
:1050B000888884848282E0E0000010402C492449E2
:1050C0002429A424A4146552A689247F2404240A34
:1050D0002411A41034200C20000000400030FE0FEA
:1050E000920092FC924492449244F2479244924439
:1050F00092449EFC80008000000000001C510008CB
:1051000000000020FC000000F42C000818520008E9
:10511000FC000020E4BA0000042D0008000000009C
:105120000102030401020304060708090204060839
:1051300000A24A0400000000000000000102030475
:105140000607080900000000351A000805120008CB
:10515000F1080008D5210008C9110008E113000872
:10516000E70800081D0C0008E11D00080D1B0008E1
:10517000C92B0008A12000085D120008991E000834
:1051800011160008000000000000000000000000F0
:10519000000000000000000000000000000000000F
:1051A00000000000000000000000000000000000FF
:1051B00000000000000000000000000000000000EF
:1051C00000000000000000000000000000000000DF
:1051D00000000000000000000000000000000000CF
:1051E00000000000000000000000000000000000BF
:1051F00000000000000000000000000000000000AF
:105200000000000000000000AAAAAAAA00000000F6
:08521000000000000000000096
:0400000508000131BD
:00000001FF
